:020000040800F2
:1000000000280020851400089D0A0008A50A0008A1
:10001000AD0A0008B50A0008BD0A0008000000008B
:10002000000000000000000000000000C50A0008F9
:10003000D10A000800000000DD0A0008E90A0008F3
:10004000CD140008CD140008CD140008CD1400080C
:10005000CD140008CD140008CD140008CD140008FC
:10006000CD140008CD140008CD140008CD140008EC
:10007000CD140008CD140008CD140008CD140008DC
:10008000CD140008CD140008CD140008CD140008CC
:10009000CD140008CD140008CD140008CD140008BC
:1000A000CD140008CD140008CD140008CD140008AC
:1000B000F50A0008CD14000800000000CD14000867
:1000C000CD1400080000000000000000CD1400085E
:1000D00000000000CD140008CD140008000000004E
:1000E000CD140008CD140008CD1400080000000055
:1000F0000000000000000000000000000000000000
:0C01000000000000000000005FF808F1A3
:10010C0010B5054C237833B9044B13B10448AFF345
:10011C0000800123237010BD34000020000000007B
:10012C00042B000808B5034B1BB103490348AFF37C
:10013C00008008BD0000000038000020042B0008DF
:10014C0080B584B000AF786001227F21354801F082
:10015C00BCFC354A7B6813441B78FB73FB7B03F0B8
:10016C000103002B0CBF01230023DBB21A46012133
:10017C002C4801F0AAFCFB7B03F00203002B0CBF04
:10018C0001230023DBB21A460221264801F09DFC14
:10019C00FB7B03F00403002B0CBF01230023DBB219
:1001AC001A4604211F4801F090FCFB7B03F0080366
:1001BC00002B0CBF01230023DBB21A46082119487F
:1001CC0001F083FCFB7B03F01003002B0CBF01231D
:1001DC000023DBB21A461021124801F076FCFB7B9F
:1001EC0003F02003002B0CBF01230023DBB21A46C3
:1001FC0020210C4801F069FCFB7B03F04003002B31
:10020C000CBF01230023DBB21A464021054801F044
:10021C005CFC00228021034801F057FC00BF103722
:10022C00BD4680BD000801400000002080B500AF35
:10023C0001224FF480710B4801F047FC01224FF46E
:10024C000071084801F041FC01224FF4806105481F
:10025C0001F03BFC01224FF40061024801F035FC37
:10026C0000BF80BD0008014080B582B000AF78604F
:10027C00FFF7DCFF7B68032B39D801A252F823F07F
:10028C009D020008B5020008CD020008E502000836
:10029C0000224FF48071184801F017FC174B1B68B3
:1002AC001846FFF74DFF23E000224FF4007112486F
:1002BC0001F00BFC114B5B681846FFF741FF17E090
:1002CC0000224FF480610C4801F0FFFB0B4B9B6844
:1002DC001846FFF735FF0BE000224FF4006106488B
:1002EC0001F0F3FB054BDB681846FFF729FF00BF55
:1002FC0000BF0837BD4680BD0008014050000020FB
:10030C0080B487B000AF786039607A681C4B83FB8F
:10031C0002139910D317C91A0B469B000B445B00B0
:10032C00D31A7B617B68164A82FB03129210DB178F
:10033C00D31A3B613A68124B83FB02139910D31703
:10034C00C91A0B469B000B445B00D31AFB603B683D
:10035C000B4A82FB03129210DB17D31ABB60094ABB
:10036C003B691360074A7B695360064ABB6893601C
:10037C00044AFB68D36000BF1C37BD4680BC704785
:10038C00676666665000002080B500AF264B1B7870
:10039C00022B2BD0022B45DC002B02D0012B0CD0D6
:1003AC0040E0012000F02AF90346002B35D01E4B0B
:1003BC0001221A7000F082FE2FE0012000F056F9A5
:1003CC000346002B03D1184B00221A7027E00120A2
:1003DC0000F032F90346002B21D04FF4FA710320C0
:1003EC0000F096FA104B02221A7018E0012000F06F
:1003FC003DF90346002B02D10B4B00221A7003204F
:10040C0000F0D6FA0346002B0BD000F057FE4FF449
:10041C00FA71032000F07CFA03E000BF02E000BF99
:10042C0000E000BF00BF80BD6000002080B483B03E
:10043C0000AF0023FB7120E0FB79144A0121D15459
:10044C00FA791249C95C124B9954FB79114A012172
:10045C00D154FB79104A0121D154FB790F4A002168
:10046C00D154FB790E4A002122F81310FB790D4A66
:10047C000021D154FB790133FB71FB79022BDBD9C1
:10048C0000BF00BF0C37BD4680BC70476C0000201D
:10049C006800002064000020740000207C00002014
:1004AC00800000207800002090B583B000AF0023BE
:1004BC00FB7187E0FA79FB794749895C474AD1544B
:1004CC00FA79FB794649895C434AD154FB79022B72
:1004DC001CD0022B25DC002B02D0012B0BD020E0F2
:1004EC00FC794FF400513F4801F0D8FA03461A4604
:1004FC003B4B1A5516E0FC794FF48041394801F01A
:10050C00CDFA03461A46364B1A550BE0FC794FF4DC
:10051C000041344801F0C2FA03461A46304B1A55D2
:10052C0000E000BFFB792E4AD25CFB792A49CB5CF8
:10053C009A420DD1FB79284AD25CFB792749CB5CD6
:10054C009A4205D1FA79FB792549895C264AD1541E
:10055C00FB79264AD35C012B08D1FB79224AD35C68
:10056C00002B03D1FB79224A0121D154FB791E4A7D
:10057C00D35C002B14D1FB791E4A32F81330632B59
:10058C0009D8FB791B4A32F81320013291B2194A6F
:10059C0022F813100DE0FB79174A0121D15408E021
:1005AC00FB79144A002122F81310FB79124A00211E
:1005BC00D154FA79FB790C49895C0C4AD154FB79FA
:1005CC000133FB71FB79022B7FF674AF00BF00BFC8
:1005DC000C37BD4690BD00BF6C00002070000020A1
:1005EC0068000020000C0140640000207400002012
:1005FC007C000020800000207800002080B483B0B4
:10060C0000AF0346FB71FB79022B01D900230BE0F1
:10061C00FB79084AD35C002B05D0FB79054A0021F5
:10062C00D154012300E0002318460C37BD4680BC92
:10063C00704700BF7C00002080B483B000AF03463D
:10064C00FB71FB79022B01D9002307E0FB79064AE9
:10065C00D35C012B01D1012300E0002318460C3799
:10066C00BD4680BC704700BF7800002080B483B0CA
:10067C0000AF0346FB71FB79022B01D9002307E085
:10068C00FB79064AD35C002B0CBF01230023DBB2A1
:10069C0018460C37BD4680BC704700BF6400002074
:1006AC0080B500AF00F00EFF00F012F800F098F8E3
:1006BC0000F04AF8FFF7BAFE044801F065FEFFF7B8
:1006CC0063FE00F021FA00BFF9E700BF88000020AC
:1006DC0080B590B000AF07F118032822002118460E
:1006EC0002F0DEF93B1D00221A605A609A60DA6053
:1006FC001A610223BB610123BB621023FB6200233E
:10070C007B6307F11803184601F010FA0346002B1F
:10071C0001D000F0F7F80F237B600023BB600023AF
:10072C00FB6000233B6100237B613B1D00211846CD
:10073C0001F07EFC0346002B01D000F0E3F800BF73
:10074C004037BD4680BD000080B586B000AF07F1D4
:10075C00080300221A605A609A60DA603B46002255
:10076C001A605A601D4B4FF080421A601B4B41F6C9
:10077C003F725A60194B00229A60184B0922DA60BA
:10078C00164B00221A61154B00229A61134801F096
:10079C00ABFD0346002B01D000F0B4F84FF48053AE
:1007AC00BB6007F1080319460C4801F029FF03460A
:1007BC00002B01D000F0A6F800233B6000237B60E7
:1007CC003B461946054802F001F90346002B01D0BF
:1007DC0000F098F800BF1837BD4680BD8800002097
:1007EC0080B586B000AF07F1080300221A605A608A
:1007FC009A60DA60284B9B69274A43F004039361A3
:10080C00254B9B6903F004037B607B68224B9B693F
:10081C00214A43F0080393611F4B9B6903F00803C3
:10082C003B603B68002241F6FF711C4801F04DF91A
:10083C0000223F211A4801F048F941F6FF73BB60D2
:10084C000123FB6000233B6102237B6107F108035A
:10085C001946124800F0A6FF3F23BB600123FB6042
:10086C0000233B6102237B6107F1080319460C4806
:10087C0000F098FF4FF46043BB600023FB60012342
:10088C003B6107F108031946054800F08BFF00BFD8
:10089C001837BD4680BD00BF001002400008014063
:1008AC00000C014080B582B000AF78607B681B689B
:1008BC00B3F1804F03D1FFF7F7FD00F049F80F4B70
:1008CC001B68013B0D4A13600C4B1B68002B11DCA1
:1008DC000A4B14221A600A4B1B685A1C08490A60FE
:1008EC001846FFF7C1FC064B1B68032B02DD044BBB
:1008FC0000221A6000BF0837BD4680BD0C000020E6
:10090C00D000002080B400AF72B600BF00BFFDE77E
:10091C0080B483B000AF786039603B68094A82FBD1
:10092C0003129210DB17D21A07497B6841F8232077
:10093C00064A7B68002142F8231000BF0C37BD46E5
:10094C0080BC704767666666E4000020D400002017
:10095C0080B483B000AF00237B601CE0124A7B683C
:10096C0052F82330002B13DD0F4A7B6852F82330EA
:10097C005A1E0D497B6841F823200B4A7B6852F8BC
:10098C002330002B04D1094A7B68012142F8231043
:10099C007B6801337B607B68032BDFDD00BF00BF0E
:1009AC000C37BD4680BC7047E4000020D40000200A
:1009BC0080B483B000AF7860094A7B6852F823306A
:1009CC00012B06D1064A7B68002142F82310012333
:1009DC0000E0002318460C37BD4680BC704700BFB2
:1009EC00D400002080B485B000AF154B9B69144A2D
:1009FC0043F001039361124B9B6903F00103BB604D
:100A0C00BB680F4BDB690E4A43F08053D3610C4B30
:100A1C00DB6903F080537B607B680A4B5B68FB608F
:100A2C00FB6823F0E063FB60FB6843F00073FB6042
:100A3C00044AFB68536000BF1437BD4680BC704746
:100A4C00001002400000014080B584B000AF786017
:100A5C007B681B68B3F1804F13D10C4BDB690B4ADD
:100A6C0043F00103D361094BDB6903F00103FB6025
:100A7C00FB68002200211C2000F05DFE1C2000F011
:100A8C0076FE00BF1037BD4680BD00BF001002408F
:100A9C0080B400AF00BFFDE780B400AF00BFFDE73E
:100AAC0080B400AF00BFFDE780B400AF00BFFDE72E
:100ABC0080B400AF00BFFDE780B400AF00BFBD46FF
:100ACC0080BC704780B400AF00BFBD4680BC70478F
:100ADC0080B400AF00BFBD4680BC704780B500AF8E
:100AEC0000F036FD00BF80BD80B500AF024801F0BC
:100AFC0097FC00BF80BD00BF8800002080B400AF11
:100B0C0000BFBD4680BC704780B500AF874B1B78DB
:100B1C00072B00F23E8201A252F823F0490B000889
:100B2C009F0B0008630C0008590D00082D0E0008DF
:100B3C00A30E0008F30E0008430F00084FF47A715F
:100B4C000020FFF7E5FE7A4B1B6819460120FFF7E2
:100B5C00DFFE784B1B68784A82FB03129211DB177D
:100B6C00D31A764A1360724B1B68734A82FB0312CA
:100B7C009211DB17D31A724A1360704B1B68704AC0
:100B8C00126811461846FFF7BBFB684B01221A701E
:100B9C000EE200F0E5FA0020FFF70AFF0346002BF7
:100BAC0016D0664B1B68013B644A1360644B1B6890
:100BBC00013B634A1360614B1B68614A1268114622
:100BCC001846FFF79DFB4FF47A710020FFF7A0FE4B
:100BDC000020FFF713FD0346002B0AD001224FF42F
:100BEC008051584800F071FF00F03EFA4F4B05223F
:100BFC001A700120FFF7DCFE0346002B00F0CB81BE
:100C0C00514B1B684C4A82FB03129211DB17D31A0F
:100C1C004A4A13604C4B1B68474A82FB03129211E1
:100C2C00DB17D31A464A13604FF47A710020FFF792
:100C3C006FFE454B1B6819460120FFF769FE3F4BC1
:100C4C001B683F4A126811461846FFF759FB374B91
:100C5C0002221A709FE100F0A7FA0020FFF7A8FE0D
:100C6C000346002B16D0354B1B68013B334A1360EF
:100C7C00334B1B68013B324A1360304B1B68304AC4
:100C8C00126811461846FFF73BFB4FF47A710020AF
:100C9C00FFF73EFE0020FFF7B1FC0346002B0AD005
:100CAC0000224FF48051274800F00FFF00F0DCF9D0
:100CBC001E4B05221A700120FFF77AFE0346002B0B
:100CCC0000F06B811A4B1B681B4A82FB03129211BA
:100CDC00DB17D31A194A1360164B1B68164A82FB92
:100CEC0003129211DB17D31A154A1360134B1B68AE
:100CFC00134A126811461846FFF702FB4FF47A713B
:100D0C000020FFF705FE0A4B1B6819460120FFF770
:100D1C00FFFD0A4B1B680A4A126811461846FFF77A
:100D2C00EFFA024B03221A7037E100BFF4000020E7
:100D3C001800002014000020D34D6210F800002091
:100D4C00FC000020000801401C00002000F050FABC
:100D5C000020FFF72DFE0346002B16D0954B1B6889
:100D6C00013B944A1360944B1B68013B924A1360FD
:100D7C00904B1B68904A126811461846FFF7C0FA50
:100D8C004FF47A710020FFF7C3FD0120FFF710FE2E
:100D9C000346002B31D0894B1B68894A82FB031216
:100DAC009211DB17D31A834A1360844B1B68844A55
:100DBC0082FB03129211DB17D31A7F4A13607D4B0F
:100DCC001B687D4A126811461846FFF799FA4FF4D2
:100DDC007A710020FFF79CFD784B1B6819460120A7
:100DEC00FFF796FD734B1B68734A12681146184641
:100DFC00FFF786FA734B04221A700020FFF7FEFBF4
:100E0C000346002B00F0CB8000224FF480516E483B
:100E1C0000F05BFE00F028F96A4B05221A70BEE068
:100E2C0000F00AFA0020FFF7C3FD0346002B16D092
:100E3C00604B1B68013B5F4A13605F4B1B68013BB7
:100E4C005D4A13605B4B1B685B4A1268114618467F
:100E5C00FFF756FA4FF47A710020FFF759FD012085
:100E6C00FFF7A6FD0346002B02D0564B00221A704A
:100E7C000020FFF7C3FB0346002B00F092800122F9
:100E8C004FF48051504800F020FE00F0EDF84D4B2F
:100E9C0005221A7085E000F0F3F900F0A3F80020A9
:100EAC00FFF7ACFB0346002B02D0464B06221A7010
:100EBC000220FFF7A3FB0346002B74D0434B002208
:100ECC001A60434B1B68434A1360434B1B68434AED
:100EDC001360434B1B68394A136000F05BFA394BC3
:100EEC0000221A705FE000F0F9F900F07BF80020A6
:100EFC00FFF784FB0346002B02D0324B07221A70FB
:100F0C000220FFF77BFB0346002B4ED02F4B002219
:100F1C001A602F4B1B682F4A13602F4B1B682F4AEC
:100F2C0013602F4B1B68254A136000F07FFA254B8A
:100F3C0000221A7039E000F0FFF900F053F800209D
:100F4C00FFF75CFB0346002B08D000F049FA00F0D9
:100F5C0021FA00F06BFA1B4B00221A700220FFF7EB
:100F6C004DFB0346002B22D0184B00221A60184B65
:100F7C001B68184A1360184B1B68184A1360184BEF
:100F8C001B680E4A136000F02BFA0E4B00221A70ED
:100F9C000DE000BF0CE000BF0AE000BF08E000BF9E
:100FAC0006E000BF04E000BF02E000BF00E000BFAD
:100FBC0000BF80BDF8000020FC0000201C000020B9
:100FCC00D34D6210F4000020000801400001002005
:100FDC002000002014000020240000201800002015
:100FEC002800002080B582B000AF00237B60194B35
:100FFC001B78072B1AD0072B22DC052B02D0062BD3
:10100C000AD01DE0144B1B68144A82FB0312921188
:10101C00DB17D31A7B6014E0114B1B680F4A82FB61
:10102C0003129211DB17D31A7B600AE00D4B1B687D
:10103C000A4A82FB03129211DB17D31A7B6000E081
:10104C0000BF79687868FFF75BF900BF0837BD46C9
:10105C0080BD00BFF400002020000020D34D6210A2
:10106C00280000202400002080B500AF0C4B1B682A
:10107C00002B0ED10B4B1B680B4A13600B4B1B68E0
:10108C000B4A13600B4B1B680B4A1360044B012279
:10109C001A604FF4FA710220FFF73AFC00BF80BDD2
:1010AC000001002014000020200000201800002067
:1010BC00240000201C0000202800002080B500AF78
:1010CC00214B1B78072B2AD0072B3ADC052B02D09F
:1010DC00062B12D035E01D4B1B6803F57A731B4AA7
:1010EC0013601A4B1B681A4A934203DD174B4FF4DB
:1010FC007A721A60FFF776FF24E0164B1B6803F533
:10110C007A73144A1360134B1B68114A934203DD24
:10111C00104B4FF47A721A60FFF764FF12E00E4B1B
:10112C001B6803F57A730C4A13600C4B1B68084A56
:10113C00934203DD084B4FF47A721A60FFF752FFAB
:10114C0000E000BF00BF80BDF400002020000020A4
:10115C00B882010028000020240000201800002084
:10116C0080B500AF002201210E4800F0AEFC012238
:10117C0002210C4800F0A9FC01220421094800F0CE
:10118C00A4FC01220821074800F09FFC0122102139
:10119C00044800F09AFC00222021024800F095FC43
:1011AC0000BF80BD000C014080B500AF00220121C2
:1011BC000E4800F08AFC012202210C4800F085FC4C
:1011CC0001220421094800F080FC01220821074873
:1011DC0000F07BFC00221021044800F076FC012278
:1011EC002021024800F071FC00BF80BD000C0140C2
:1011FC0080B500AF012201210E4800F066FC0122EF
:10120C0002210C4800F061FC00220421094800F086
:10121C005CFC00220821074800F057FC0122102139
:10122C00044800F052FC01222021024800F04DFC41
:10123C0000BF80BD000C014080B500AF0122012130
:10124C000E4800F042FC002202210C4800F03DFC4C
:10125C0001220421094800F038FC0022082107482B
:10126C0000F033FC01221021044800F02EFC012276
:10127C002021024800F029FC00BF80BD000C014079
:10128C0080B500AF01220221134800F01EFC0122A0
:10129C000421114800F019FC012210210E4800F025
:1012AC0014FC012220210C4800F00FFC0220FFF757
:1012BC007FFB0346002B0CD00121074800F01DFCDE
:1012CC000821054800F019FC4FF4FA710220FFF7D1
:1012DC001FFB00BF80BD00BF000C014080B500AFFC
:1012EC0001220121134800F0F0FB012204211148D6
:1012FC0000F0EBFB012208210E4800F0E6FB012276
:10130C0020210C4800F0E1FB0220FFF751FB0346C3
:10131C00002B0CD00221074800F0EFFB10210548F0
:10132C0000F0EBFB4FF4FA710220FFF7F1FA00BF6B
:10133C0080BD00BF000C014080B500AF012201212F
:10134C00134800F0C2FB01220221114800F0BDFB42
:10135C00012208210E4800F0B8FB012210210C4894
:10136C0000F0B3FB0220FFF723FB0346002B0CD04D
:10137C000421074800F0C1FB2021054800F0BDFB0B
:10138C004FF4FA710220FFF7C3FA00BF80BD00BF13
:10139C00000C014080B400AF0E4B1A680E4B1B685A
:1013AC009A4207DA0C4B1A680C4B1B68D31A094A81
:1013BC0013600BE0084B41F658321A60074B4FF4A0
:1013CC00FA621A60034B41F288321A6000BFBD46C4
:1013DC0080BC704718000020140000201C00002066
:1013EC0080B400AF0E4B1A680E4B1B689A4207DA9A
:1013FC000C4B1A680C4B1B68D31A094A13600BE090
:10140C00084B41F658321A60074B4FF4FA621A60D7
:10141C00034B41F288321A6000BFBD4680BC704756
:10142C0018000020140000201C00002080B400AF25
:10143C000E4B1A680E4B1B689A4207DA0D4B1A6852
:10144C000B4B1B68D31A094A13600BE0094B41F68E
:10145C0058321A60054B4FF4FA621A60044B41F291
:10146C0088321A6000BFBD4680BC70471C0000204B
:10147C001800002014000020FFF740FB0B480C491B
:10148C000C4A002302E0D458C4500433C4188C42D4
:10149C00F9D3094A094C002301E013600432A2423B
:1014AC00FBD301F005FBFFF7FBF8704700000020B1
:1014BC0034000020482B00083400002008010020D4
:1014CC00FEE7000080B500AF084B1B68074A43F0ED
:1014DC0010031360032000F023F90F2000F008F82C
:1014EC00FFF780FA0023184680BD00BF00200240A1
:1014FC0080B582B000AF7860124B1A68124B1B7823
:10150C0019464FF47A73B3FBF1F3B2FBF3F31846BD
:10151C0000F03BF90346002B01D001230EE07B6861
:10152C000F2B0AD8002279684FF0FF3000F003F936
:10153C00064A7B681360002300E001231846083735
:10154C00BD4680BD10000020300000202C00002083
:10155C0080B400AF054B1B781A46054B1B6813442F
:10156C00034A136000BFBD4680BC704730000020AA
:10157C000401002080B400AF024B1B681846BD4626
:10158C0080BC70470401002080B485B000AF786047
:10159C007B6803F00703FB600C4BDB68BB60BA682D
:1015AC004FF6FF031340BB60FB681A02BB68134382
:1015BC0043F0BF6343F40033BB60044ABB68D360A1
:1015CC0000BF1437BD4680BC704700BF00ED00E083
:1015DC0080B400AF044BDB681B0A03F0070318460A
:1015EC00BD4680BC704700BF00ED00E080B483B006
:1015FC0000AF0346FB7197F90730002B0BDBFB792F
:10160C0003F01F02064997F907305B09012000FA25
:10161C0002F241F8232000BF0C37BD4680BC704756
:10162C0000E100E080B483B000AF03463960FB7189
:10163C0097F90730002B0ADB3B68DAB20C4997F9B3
:10164C0007301201D2B20B4483F800230AE03B6846
:10165C00DAB20849FB7903F00F03043B1201D2B252
:10166C000B441A7600BF0C37BD4680BC704700BFD8
:10167C0000E100E000ED00E080B489B000AFF8605C
:10168C00B9607A60FB6803F00703FB61FB69C3F187
:10169C000703042B28BF0423BB61FB690433062B0F
:1016AC0002D9FB69033B00E000237B614FF0FF3262
:1016BC00BB6902FA03F3DA43BB681A407B699A40B0
:1016CC004FF0FF317B6901FA03F3D9437B680B4080
:1016DC00134318462437BD4680BC704780B582B092
:1016EC0000AF78607B68013BB3F1807F01D30123AD
:1016FC000FE00A4A7B68013B53600F214FF0FF302B
:10170C00FFF790FF054B00229A60044B07221A60EA
:10171C00002318460837BD4680BD00BF10E000E02E
:10172C0080B582B000AF78607868FFF72DFF00BFFE
:10173C000837BD4680BD80B586B000AF0346B960A2
:10174C007A60FB7300237B61FFF742FF78617A6854
:10175C00B9687869FFF790FF024697F90F30114688
:10176C001846FFF75FFF00BF1837BD4680BD80B538
:10177C0082B000AF0346FB7197F907301846FFF7AC
:10178C0035FF00BF0837BD4680BD80B582B000AFC5
:10179C0078607868FFF7A2FF034618460837BD4605
:1017AC0080BD000080B48BB000AF7860396000233E
:1017BC007B6200233B6261E101227B6A02FA03F344
:1017CC00FB613B681B68FA691340BB61BA69FB6932
:1017DC009A4240F050813B685B68974A93425ED0D6
:1017EC00954A934275D8954A934258D0934A93425E
:1017FC006FD8934A934252D0914A934269D8914AF6
:10180C0093424CD08F4A934263D88F4A934246D02E
:10181C008D4A93425DD8122B2AD8122B59D801A28B
:10182C0052F823F0AB180008851800089718000828
:10183C00D9180008DF180008DF180008DF180008A6
:10184C00DF180008DF180008DF180008DF18000890
:10185C00DF180008DF180008DF180008DF18000880
:10186C00DF180008DF1800088D180008A118000800
:10187C00764A934213D02CE03B68DB683B6229E04C
:10188C003B68DB6804333B6224E03B68DB6808336D
:10189C003B621FE03B68DB680C333B621AE03B6841
:1018AC009B68002B02D104233B6213E03B689B68CE
:1018BC00012B05D108233B627B68FA691A6109E0A8
:1018CC0008233B627B68FA695A6103E000233B62A0
:1018DC0000E000BFBB69FF2B01D87B6801E07B688F
:1018EC0004337B61BB69FF2B02D87B6A9B0002E04F
:1018FC007B6A083B9B003B617B691A680F213B6943
:10190C0001FA03F3DB431A40396A3B6901FA03F32A
:10191C001A437B691A603B685B6803F08053002BA9
:10192C0000F0A9804A4B9B69494A43F0010393613B
:10193C00474B9B6903F00103BB60BB68454A7B6A5C
:10194C009B08023352F82330FB607B6A03F00303DD
:10195C009B000F2202FA03F3DB43FA681340FB608F
:10196C007B683D4A93420DD07B683C4A934207D03A
:10197C007B683B4A934201D1022304E0032302E03B
:10198C00012300E000237A6A02F0030292009340E4
:10199C00FA681343FB602F497B6A9B080233FA6891
:1019AC0041F823203B685B6803F48013002B06D0BE
:1019BC002C4B9A682B49BB6913438B6006E0294B6F
:1019CC009A68BB69DB43274913408B603B685B68B3
:1019DC0003F40013002B06D0224BDA682149BB69B3
:1019EC001343CB6006E01F4BDA68BB69DB431D4930
:1019FC001340CB603B685B6803F40033002B06D0CC
:101A0C00184B5A681749BB6913434B6006E0154BDA
:101A1C005A68BB69DB43134913404B603B685B68F6
:101A2C0003F48033002B1FD00E4B1A680D49BB6991
:101A3C0013430B601FE000BF000032100000311098
:101A4C0000002210000021100000121000001110E4
:101A5C00001002400000014000080140000C014051
:101A6C0000100140000401400B4B1A68BB69DB43BA
:101A7C00094913400B607B6A01337B623B681A682F
:101A8C007B6A22FA03F3002B7FF496AE00BF00BFF3
:101A9C002C37BD4680BC70470004014080B485B033
:101AAC0000AF78600B467B807B689A687B8813401C
:101ABC00002B02D00123FB7301E00023FB73FB7BA3
:101ACC0018461437BD4680BC704780B483B000AF55
:101ADC0078600B467B8013467B707B78002B03D0A1
:101AEC007A887B681A6103E07B881A047B681A6128
:101AFC0000BF0C37BD4680BC704780B485B000AFCA
:101B0C0078600B467B807B68DB68FB607A88FB68BF
:101B1C0013401A04FB68D9437B880B401A437B683B
:101B2C001A6100BF1437BD4680BC704780B586B0C3
:101B3C0000AF78607B68002B01D1012372E27B68D7
:101B4C001B6803F00103002B00F08780924B5B684D
:101B5C0003F00C03042B0CD08F4B5B6803F00C03CD
:101B6C00082B12D18C4B5B6803F48033B3F5803FA8
:101B7C000BD1894B1B6803F40033002B6CD07B68B2
:101B8C005B68002B68D101234CE27B685B68B3F582
:101B9C00803F06D1804B1B687F4A43F4803313602F
:101BAC002EE07B685B68002B0CD17B4B1B687A4A60
:101BBC0023F480331360784B1B68774A23F480231B
:101BCC0013601DE07B685B68B3F5A02F0CD1724BE2
:101BDC001B68714A43F4802313606F4B1B686E4A79
:101BEC0043F4803313600BE06B4B1B686A4A23F49D
:101BFC0080331360684B1B68674A23F4802313609F
:101C0C007B685B68002B13D0FFF7B4FC386108E0ED
:101C1C00FFF7B0FC02463B69D31A642B01D90323AE
:101C2C0000E25D4B1B6803F40033002BF0D014E092
:101C3C00FFF7A0FC386108E0FFF79CFC02463B690B
:101C4C00D31A642B01D90323ECE1534B1B6803F427
:101C5C000033002BF0D100E000BF7B681B6803F061
:101C6C000203002B63D04C4B5B6803F00C03002B7E
:101C7C000BD0494B5B6803F00C03082B1CD1464B73
:101C8C005B6803F48033002B16D1434B1B6803F0C5
:101C9C000203002B05D07B681B69012B01D00123AB
:101CAC00C0E13D4B1B6823F0F8027B685B69DB00ED
:101CBC00394913430B603AE07B681B69002B20D039
:101CCC00364B01221A60FFF755FC386108E0FFF72C
:101CDC0051FC02463B69D31A022B01D90323A1E123
:101CEC002D4B1B6803F00203002BF0D02A4B1B6812
:101CFC0023F0F8027B685B69DB00274913430B6018
:101D0C0015E0264B00221A60FFF734FC386108E01E
:101D1C00FFF730FC02463B69D31A022B01D903238F
:101D2C0080E11D4B1B6803F00203002BF0D17B6894
:101D3C001B6803F00803002B3AD07B689B69002BCF
:101D4C0019D0174B01221A60FFF714FC386108E018
:101D5C00FFF710FC02463B69D31A022B01D903236F
:101D6C0060E10D4B5B6A03F00203002BF0D0012005
:101D7C0000F09CFA1CE00A4B00221A60FFF7FAFBF9
:101D8C0038610FE0FFF7F6FB02463B69D31A022BD2
:101D9C0008D9032346E100BF001002400000424274
:101DAC0080044242924B5B6A03F00203002BE9D1A0
:101DBC007B681B6803F00403002B00F0A680002353
:101DCC00FB758B4BDB6903F08053002B0DD1884BDB
:101DDC00DB69874A43F08053D361854BDB6903F0A1
:101DEC008053BB60BB680123FB75824B1B6803F4FB
:101DFC008073002B18D17F4B1B687E4A43F4807391
:101E0C001360FFF7B7FB386108E0FFF7B3FB02463E
:101E1C003B69D31A642B01D9032303E1754B1B686F
:101E2C0003F48073002BF0D07B68DB68012B06D1A8
:101E3C006F4B1B6A6E4A43F0010313622DE07B6803
:101E4C00DB68002B0CD16A4B1B6A694A23F0010337
:101E5C001362674B1B6A664A23F0040313621CE08F
:101E6C007B68DB68052B0CD1614B1B6A604A43F025
:101E7C00040313625E4B1B6A5D4A43F00103136259
:101E8C000BE05B4B1B6A5A4A23F001031362584B5D
:101E9C001B6A574A23F0040313627B68DB68002B30
:101EAC0015D0FFF767FB38610AE0FFF763FB0246CA
:101EBC003B69D31A41F28832934201D90323B1E032
:101ECC004B4B1B6A03F00203002BEED014E0FFF720
:101EDC0051FB38610AE0FFF74DFB02463B69D31A10
:101EEC0041F28832934201D903239BE0404B1B6A99
:101EFC0003F00203002BEED1FB7D012B05D13C4BF3
:101F0C00DB693B4A23F08053D3617B68DB69002B90
:101F1C0000F08780364B5B6803F00C03082B61D014
:101F2C007B68DB69022B46D1334B00221A60FFF72A
:101F3C0021FB386108E0FFF71DFB02463B69D31A11
:101F4C00022B01D903236DE0294B1B6803F00073AE
:101F5C00002BF0D17B681B6AB3F5803F08D1244B72
:101F6C005B6823F400327B689B68214913434B6008
:101F7C001F4B5B6823F474127B68196A7B685B6A7D
:101F8C000B431B4913434B601B4B01221A60FFF799
:101F9C00F1FA386108E0FFF7EDFA02463B69D31A13
:101FAC00022B01D903233DE0114B1B6803F0007396
:101FBC00002BF0D035E0104B00221A60FFF7DAFA54
:101FCC00386108E0FFF7D6FA02463B69D31A022BB8
:101FDC0001D9032326E0064B1B6803F00073002B8A
:101FEC00F0D11EE07B68DB69012B07D1012319E0DE
:101FFC000010024000700040600042420B4B5B68D6
:10200C00FB60FB6803F480327B681B6A9A4206D142
:10201C00FB6803F470127B685B6A9A4201D001235F
:10202C0000E0002318461837BD4680BD0010024062
:10203C0080B584B000AF786039607B68002B01D12B
:10204C000123D0E06A4B1B6803F007033A689A42FD
:10205C0010D9674B1B6823F0070265493B68134393
:10206C000B60634B1B6803F007033A689A4201D07C
:10207C000123B8E07B681B6803F00203002B20D01F
:10208C007B681B6803F00403002B05D0594B5B687D
:10209C00584A43F4E06353607B681B6803F0080301
:1020AC00002B05D0534B5B68524A43F4605353608A
:1020BC00504B5B6823F0F0027B689B684D491343DF
:1020CC004B607B681B6803F00103002B40D07B68DE
:1020DC005B68012B07D1474B1B6803F40033002BC3
:1020EC0015D101237FE07B685B68022B07D1414B44
:1020FC001B6803F00073002B09D1012373E03D4BE7
:10210C001B6803F00203002B01D101236BE0394B58
:10211C005B6823F003027B685B68364913434B60B2
:10212C00FFF728FAF8600AE0FFF724FA0246FB688A
:10213C00D31A41F28832934201D9032353E02D4B39
:10214C005B6803F00C027B685B689B009A42EBD1E6
:10215C00274B1B6803F007033A689A4210D2244BB2
:10216C001B6823F0070222493B6813430B60204B8A
:10217C001B6803F007033A689A4201D0012332E04E
:10218C007B681B6803F00403002B08D0194B5B68B9
:10219C0023F4E0627B68DB68164913434B607B6871
:1021AC001B6803F00803002B09D0124B5B6823F467
:1021BC0060527B681B69DB000E4913434B6000F0D7
:1021CC0021F802460B4B5B681B0903F00F030A490D
:1021DC00CB5C22FA03F3094A1360094B1B681846BF
:1021EC00FFF786F9002318461037BD4680BD00BFA7
:1021FC0000200240001002401C2B000810000020A0
:10220C002C00002080B487B000AF0023FB600023BB
:10221C00BB6000237B6100237B6000233B611E4B72
:10222C005B68FB60FB6803F00C03042B02D0082BEB
:10223C0003D027E0194B3B6127E0FB689B0C03F0B4
:10224C000F03174AD35C7B60FB6803F48033002BCD
:10225C0010D0114B5B685B0C03F00103114AD35C8B
:10226C00BB607B680D4A03FB02F2BB68B2FBF3F365
:10227C007B6104E07B680C4A02FB03F37B617B69A6
:10228C003B6102E0054B3B6100BF3B6918461C37C4
:10229C00BD4680BC704700BF0010024000127A009F
:1022AC002C2B00083C2B000800093D0080B485B0A5
:1022BC0000AF78600A4B1B680A4AA2FB03235B0A37
:1022CC007A6802FB03F3FB6000BFFB685A1EFA60DE
:1022DC00002BF9D100BF00BF1437BD4680BC70473E
:1022EC0010000020D34D621080B582B000AF786032
:1022FC007B68002B01D1012341E07B6893F83D30D2
:10230C00DBB2002B06D17B68002283F83C20786876
:10231C00FEF79AFB7B68022283F83D207B681A68E3
:10232C007B6804331946104600F056FA7B6801228C
:10233C0083F846207B68012283F83E207B680122CB
:10234C0083F83F207B68012283F840207B680122C0
:10235C0083F841207B68012283F842207B680122AC
:10236C0083F843207B68012283F844207B68012298
:10237C0083F845207B68012283F83D200023184612
:10238C000837BD4680BD000080B485B000AF7860D2
:10239C007B6893F83D30DBB2012B01D0012335E093
:1023AC007B68022283F83D207B681B68DA687B68B7
:1023BC001B6842F00102DA607B681B68164A934284
:1023CC0009D07B681B68B3F1804F04D07B681B6815
:1023DC00124A934211D17B681B689B6803F0070378
:1023EC00FB60FB68062B10D07B681B681A687B6847
:1023FC001B6842F001021A6007E07B681B681A68D0
:10240C007B681B6842F001021A60002318461437DF
:10241C00BD4680BC704700BF002C0140000400404A
:10242C0080B584B000AF78607B681B68DB68FB60AC
:10243C007B681B681B69BB60BB6803F00203002B45
:10244C0020D0FB6803F00203002B1BD07B681B68B9
:10245C006FF002021A617B6801221A777B681B6895
:10246C009B6903F00303002B03D0786800F098F904
:10247C0005E0786800F08BF9786800F09AF97B68D1
:10248C0000221A77BB6803F00403002B20D0FB68F2
:10249C0003F00403002B1BD07B681B686FF0040255
:1024AC001A617B6802221A777B681B689B6903F4AC
:1024BC004073002B03D0786800F072F905E078685F
:1024CC0000F065F9786800F074F97B6800221A77DF
:1024DC00BB6803F00803002B20D0FB6803F0080353
:1024EC00002B1BD07B681B686FF008021A617B689D
:1024FC0004221A777B681B68DB6903F00303002B4B
:10250C0003D0786800F04CF905E0786800F03FF9EA
:10251C00786800F04EF97B6800221A77BB6803F0EC
:10252C001003002B20D0FB6803F01003002B1BD0F2
:10253C007B681B686FF010021A617B6808221A779F
:10254C007B681B68DB6903F44073002B03D078684D
:10255C0000F026F905E0786800F019F9786800F0C9
:10256C0028F97B6800221A77BB6803F00103002B63
:10257C000CD0FB6803F00103002B07D07B681B68B1
:10258C006FF001021A617868FEF78CF9BB6803F0F2
:10259C008003002B0CD0FB6803F08003002B07D0CA
:1025AC007B681B686FF080021A61786800F06FFA24
:1025BC00BB6803F04003002B0CD0FB6803F0400316
:1025CC00002B07D07B681B686FF040021A6178689B
:1025DC0000F0F8F8BB6803F02003002B0CD0FB686C
:1025EC0003F02003002B07D07B681B686FF02002E0
:1025FC001A61786800F042FA00BF1037BD4680BD02
:10260C0080B584B000AF786039600023FB737B68C1
:10261C0093F83C30012B01D10223B4E07B680122FA
:10262C0083F83C207B68022283F83D207B681B6882
:10263C009B68BB60BB6823F07703BB60BB6823F46B
:10264C007F43BB607B681B68BA689A603B681B68F9
:10265C00B3F5005F3ED0B3F5005F00F28780B3F5B1
:10266C00805F00F08680B3F5805F7FD8702B1AD026
:10267C00702B7BD8602B50D0602B77D8502B3CD054
:10268C00502B73D8402B58D0402B6FD8302B64D0A4
:10269C00302B6BD8202B60D0202B67D8002B5CD034
:1026AC00102B5AD062E07B6818683B6899683B68CD
:1026BC005A683B68DB6800F06AF97B681B689B68AA
:1026CC00BB60BB6843F07703BB607B681B68BA6870
:1026DC009A604FE07B6818683B6899683B685A6859
:1026EC003B68DB6800F053F97B681B689A687B6871
:1026FC001B6842F480429A603CE07B6818683B6837
:10270C0059683B68DB681A4600F0CAF87B681B689E
:10271C005021184600F021F92CE07B6818683B68C2
:10272C0059683B68DB681A4600F0E8F87B681B6860
:10273C006021184600F011F91CE07B6818683B68B2
:10274C0059683B68DB681A4600F0AAF87B681B687E
:10275C004021184600F001F90CE07B681A683B68D0
:10276C001B681946104600F0F8F803E00123FB73D0
:10277C0000E000BF7B68012283F83D207B680022CB
:10278C0083F83C20FB7B18461037BD4680BD80B4D7
:10279C0083B000AF786000BF0C37BD4680BC70477B
:1027AC0080B483B000AF786000BF0C37BD4680BCEE
:1027BC00704780B483B000AF786000BF0C37BD4663
:1027CC0080BC704780B483B000AF786000BF0C371A
:1027DC00BD4680BC7047000080B485B000AF786007
:1027EC0039607B681B68FB607B682B4A934207D07F
:1027FC007B68B3F1804F03D07B68284A934208D1A1
:10280C00FB6823F07003FB603B685B68FA6813435A
:10281C00FB607B68204A934207D07B68B3F1804F02
:10282C0003D07B681D4A934208D1FB6823F44073A4
:10283C00FB603B68DB68FA681343FB60FB6823F0C2
:10284C0080023B685B691343FB607B68FA681A6023
:10285C003B689A687B68DA623B681A687B689A62A4
:10286C007B680D4A934203D13B681A697B681A63F3
:10287C007B6801225A617B681B6903F00103002B02
:10288C0005D07B681B6923F001027B681A6100BFCD
:10289C001437BD4680BC7047002C0140000400403A
:1028AC0080B487B000AFF860B9607A60FB681B6ACF
:1028BC007B61FB681B6A23F00102FB681A62FB68F0
:1028CC009B693B613B6923F0F0033B617B681B0117
:1028DC003A6913433B617B6923F00A037B617A6994
:1028EC00BB6813437B61FB683A699A61FB687A6940
:1028FC001A6200BF1C37BD4680BC704780B487B0DD
:10290C0000AFF860B9607A60FB681B6A7B61FB689A
:10291C001B6A23F01002FB681A62FB689B693B611F
:10292C003B6923F470433B617B681B033A69134397
:10293C003B617B6923F0A0037B61BB681B017A6957
:10294C0013437B61FB683A699A61FB687A691A6286
:10295C0000BF1C37BD4680BC704780B485B000AF4B
:10296C00786039607B689B68FB60FB6823F07003C0
:10297C00FB603A68FB68134343F00703FB607B681A
:10298C00FA689A6000BF1437BD4680BC704780B4AB
:10299C0087B000AFF860B9607A603B60FB689B68F9
:1029AC007B617B6923F47F437B613B681A027B6804
:1029BC001A43BB6813437A6913437B61FB687A69DA
:1029CC009A6000BF1C37BD4680BC704780B485B090
:1029DC0000AF786039607B6893F83C30012B01D1F3
:1029EC00022341E07B68012283F83C207B680222B1
:1029FC0083F83D207B681B685B68FB607B681B6809
:102A0C009B68BB60FB6823F07003FB603B681B6832
:102A1C00FA681343FB607B681B68FA685A607B6832
:102A2C001B68144A934209D07B681B68B3F1804F32
:102A3C0004D07B681B68104A93420CD1BB6823F00E
:102A4C008003BB603B685B68BA681343BB607B6800
:102A5C001B68BA689A607B68012283F83D207B680A
:102A6C00002283F83C20002318461437BD4680BC56
:102A7C00704700BF002C01400004004080B483B0BC
:102A8C0000AF786000BF0C37BD4680BC704780B487
:102A9C0083B000AF786000BF0C37BD4680BC704778
:102AAC0003460244934200D1704703F8011BF9E737
:102ABC0070B500260C4D0D4C641BA410A64209D118
:102ACC0000F01AF800260A4D0A4C641BA410A6420A
:102ADC0005D170BD55F8043B98470136EEE755F823
:102AEC00043B98470136F2E7402B0008402B0008C6
:102AFC00402B0008442B0008F8B500BFF8BC08BCFC
:102B0C009E467047F8B500BFF8BC08BC9E4670479F
:102B1C000000000000000000010203040607080981
:102B2C0002030405060708090A0B0C0D0E0F101002
:042B3C000102000092
:042B40003101000857
:042B44000D01000877
:102B480040792430191202780010000014000000A7
:102B580000127A00581B000088130000D0070000FC
:102B6800581B000088130000D00700001000000068
:042B78000100000058
:040000050800148556
:00000001FF
