:020000040800F2
:1000000000280020C91300089D0A0008A50A00085E
:10001000AD0A0008B50A0008BD0A0008000000008B
:10002000000000000000000000000000C50A0008F9
:10003000D10A000800000000DD0A0008E90A0008F3
:1000400011140008111400081114000811140008FC
:1000500011140008111400081114000811140008EC
:1000600011140008111400081114000811140008DC
:1000700011140008111400081114000811140008CC
:1000800011140008111400081114000811140008BC
:1000900011140008111400081114000811140008AC
:1000A000111400081114000811140008111400089C
:1000B000F50A0008111400080000000011140008DF
:1000C00011140008000000000000000011140008D6
:1000D00000000000111400081114000800000000C6
:1000E0001114000811140008111400080000000089
:1000F0000000000000000000000000000000000000
:0C01000000000000000000005FF808F1A3
:10010C0010B5054C237833B9044B13B10448AFF345
:10011C0000800123237010BD280000200000000087
:10012C00482A000808B5034B1BB103490348AFF339
:10013C00008008BD000000002C000020482A0008A8
:10014C0080B584B000AF786001227F21354801F082
:10015C005EFC354A7B6813441B78FB73FB7B03F016
:10016C000103002B0CBF01230023DBB21A46012133
:10017C002C4801F04CFCFB7B03F00203002B0CBF62
:10018C0001230023DBB21A460221264801F03FFC72
:10019C00FB7B03F00403002B0CBF01230023DBB219
:1001AC001A4604211F4801F032FCFB7B03F00803C4
:1001BC00002B0CBF01230023DBB21A46082119487F
:1001CC0001F025FCFB7B03F01003002B0CBF01237B
:1001DC000023DBB21A461021124801F018FCFB7BFD
:1001EC0003F02003002B0CBF01230023DBB21A46C3
:1001FC0020210C4801F00BFCFB7B03F04003002B8F
:10020C000CBF01230023DBB21A464021054801F044
:10021C00FEFB00228021034801F0F9FB00BF1037E0
:10022C00BD4680BD000801400000002080B500AF35
:10023C0001224FF480710B4801F0E9FB01224FF4CD
:10024C000071084801F0E3FB01224FF4806105487E
:10025C0001F0DDFB01224FF40061024801F0D7FBF5
:10026C0000BF80BD0008014080B582B000AF78604F
:10027C00FFF7DCFF7B68032B39D801A252F823F07F
:10028C009D020008B5020008CD020008E502000836
:10029C0000224FF48071184801F0B9FB174B1B6812
:1002AC001846FFF74DFF23E000224FF4007112486F
:1002BC0001F0ADFB114B5B681846FFF741FF17E0EF
:1002CC0000224FF480610C4801F0A1FB0B4B9B68A2
:1002DC001846FFF735FF0BE000224FF4006106488B
:1002EC0001F095FB054BDB681846FFF729FF00BFB3
:1002FC0000BF0837BD4680BD000801404400002007
:10030C0080B487B000AF786039607A681C4B83FB8F
:10031C0002139910D317C91A0B469B000B445B00B0
:10032C00D31A7B617B68164A82FB03129210DB178F
:10033C00D31A3B613A68124B83FB02139910D31703
:10034C00C91A0B469B000B445B00D31AFB603B683D
:10035C000B4A82FB03129210DB17D31ABB60094ABB
:10036C003B691360074A7B695360064ABB6893601C
:10037C00044AFB68D36000BF1C37BD4680BC704785
:10038C00676666664400002080B500AF264B1B787C
:10039C00022B2BD0022B45DC002B02D0012B0CD0D6
:1003AC0040E0012000F02AF90346002B35D01E4B0B
:1003BC0001221A7000F028FE2FE0012000F056F9FF
:1003CC000346002B03D1184B00221A7027E00120A2
:1003DC0000F032F90346002B21D04FF4FA710320C0
:1003EC0000F096FA104B02221A7018E0012000F06F
:1003FC003DF90346002B02D10B4B00221A7003204F
:10040C0000F0D6FA0346002B0BD000F0FDFD4FF4A4
:10041C00FA71032000F07CFA03E000BF02E000BF99
:10042C0000E000BF00BF80BD5400002080B483B04A
:10043C0000AF0023FB7120E0FB79144A0121D15459
:10044C00FA791249C95C124B9954FB79114A012172
:10045C00D154FB79104A0121D154FB790F4A002168
:10046C00D154FB790E4A002122F81310FB790D4A66
:10047C000021D154FB790133FB71FB79022BDBD9C1
:10048C0000BF00BF0C37BD4680BC70476000002029
:10049C005C00002058000020680000207000002044
:1004AC00740000206C00002090B583B000AF0023D6
:1004BC00FB7187E0FA79FB794749895C474AD1544B
:1004CC00FA79FB794649895C434AD154FB79022B72
:1004DC001CD0022B25DC002B02D0012B0BD020E0F2
:1004EC00FC794FF400513F4801F07AFA03461A4662
:1004FC003B4B1A5516E0FC794FF48041394801F01A
:10050C006FFA03461A46364B1A550BE0FC794FF43A
:10051C000041344801F064FA03461A46304B1A5530
:10052C0000E000BFFB792E4AD25CFB792A49CB5CF8
:10053C009A420DD1FB79284AD25CFB792749CB5CD6
:10054C009A4205D1FA79FB792549895C264AD1541E
:10055C00FB79264AD35C012B08D1FB79224AD35C68
:10056C00002B03D1FB79224A0121D154FB791E4A7D
:10057C00D35C002B14D1FB791E4A32F81330632B59
:10058C0009D8FB791B4A32F81320013291B2194A6F
:10059C0022F813100DE0FB79174A0121D15408E021
:1005AC00FB79144A002122F81310FB79124A00211E
:1005BC00D154FA79FB790C49895C0C4AD154FB79FA
:1005CC000133FB71FB79022B7FF674AF00BF00BFC8
:1005DC000C37BD4690BD00BF6000002064000020B9
:1005EC005C000020000C0140580000206800002036
:1005FC0070000020740000206C00002080B483B0D8
:10060C0000AF0346FB71FB79022B01D900230BE0F1
:10061C00FB79084AD35C002B05D0FB79054A0021F5
:10062C00D154012300E0002318460C37BD4680BC92
:10063C00704700BF7000002080B483B000AF034649
:10064C00FB71FB79022B01D9002307E0FB79064AE9
:10065C00D35C012B01D1012300E0002318460C3799
:10066C00BD4680BC704700BF6C00002080B483B0D6
:10067C0000AF0346FB71FB79022B01D9002307E085
:10068C00FB79064AD35C002B0CBF01230023DBB2A1
:10069C0018460C37BD4680BC704700BF5800002080
:1006AC0080B500AF00F0B0FE00F012F800F098F842
:1006BC0000F04AF8FFF7BAFE044801F007FEFFF716
:1006CC0063FE00F021FA00BFF9E700BF7C000020B8
:1006DC0080B590B000AF07F118032822002118460E
:1006EC0002F080F93B1D00221A605A609A60DA60B1
:1006FC001A610223BB610123BB621023FB6200233E
:10070C007B6307F11803184601F0B2F90346002B7E
:10071C0001D000F0F7F80F237B600023BB600023AF
:10072C00FB6000233B6100237B613B1D00211846CD
:10073C0001F020FC0346002B01D000F0E3F800BFD1
:10074C004037BD4680BD000080B586B000AF07F1D4
:10075C00080300221A605A609A60DA603B46002255
:10076C001A605A601D4B4FF080421A601B4B41F6C9
:10077C003F725A60194B00229A60184B0922DA60BA
:10078C00164B00221A61154B00229A61134801F096
:10079C004DFD0346002B01D000F0B4F84FF480530C
:1007AC00BB6007F1080319460C4801F0CBFE034669
:1007BC00002B01D000F0A6F800233B6000237B60E7
:1007CC003B461946054802F0A3F80346002B01D01E
:1007DC0000F098F800BF1837BD4680BD7C000020A3
:1007EC0080B586B000AF07F1080300221A605A608A
:1007FC009A60DA60284B9B69274A43F004039361A3
:10080C00254B9B6903F004037B607B68224B9B693F
:10081C00214A43F0080393611F4B9B6903F00803C3
:10082C003B603B68002241F6FF711C4801F0EFF879
:10083C0000223F211A4801F0EAF841F6FF73BB6031
:10084C000123FB6000233B6102237B6107F108035A
:10085C001946124800F048FF3F23BB600123FB60A0
:10086C0000233B6102237B6107F1080319460C4806
:10087C0000F03AFF4FF46043BB600023FB600123A0
:10088C003B6107F108031946054800F02DFF00BF36
:10089C001837BD4680BD00BF001002400008014063
:1008AC00000C014080B582B000AF78607B681B689B
:1008BC00B3F1804F03D1FFF7F7FD00F049F80F4B70
:1008CC001B68013B0D4A13600C4B1B68002B11DCA1
:1008DC000A4B19221A600A4B1B685A1C08490A60F9
:1008EC001846FFF7C1FC064B1B68032B02DD044BBB
:1008FC0000221A6000BF0837BD4680BD0C000020E6
:10090C00C400002080B400AF72B600BF00BFFDE78A
:10091C0080B483B000AF786039603B68094A82FBD1
:10092C0003129210DB17D21A07497B6841F8232077
:10093C00064A7B68002142F8231000BF0C37BD46E5
:10094C0080BC704767666666D8000020C80000202F
:10095C0080B483B000AF00237B601CE0124A7B683C
:10096C0052F82330002B13DD0F4A7B6852F82330EA
:10097C005A1E0D497B6841F823200B4A7B6852F8BC
:10098C002330002B04D1094A7B68012142F8231043
:10099C007B6801337B607B68032BDFDD00BF00BF0E
:1009AC000C37BD4680BC7047D8000020C800002022
:1009BC0080B483B000AF7860094A7B6852F823306A
:1009CC00012B06D1064A7B68002142F82310012333
:1009DC0000E0002318460C37BD4680BC704700BFB2
:1009EC00C800002080B485B000AF154B9B69144A39
:1009FC0043F001039361124B9B6903F00103BB604D
:100A0C00BB680F4BDB690E4A43F08053D3610C4B30
:100A1C00DB6903F080537B607B680A4B5B68FB608F
:100A2C00FB6823F0E063FB60FB6843F00073FB6042
:100A3C00044AFB68536000BF1437BD4680BC704746
:100A4C00001002400000014080B584B000AF786017
:100A5C007B681B68B3F1804F13D10C4BDB690B4ADD
:100A6C0043F00103D361094BDB6903F00103FB6025
:100A7C00FB68002200211C2000F0FFFD1C2000F070
:100A8C0018FE00BF1037BD4680BD00BF00100240ED
:100A9C0080B400AF00BFFDE780B400AF00BFFDE73E
:100AAC0080B400AF00BFFDE780B400AF00BFFDE72E
:100ABC0080B400AF00BFFDE780B400AF00BFBD46FF
:100ACC0080BC704780B400AF00BFBD4680BC70478F
:100ADC0080B400AF00BFBD4680BC704780B500AF8E
:100AEC0000F0D8FC00BF80BD80B500AF024801F01B
:100AFC0039FC00BF80BD00BF7C00002080B400AF7B
:100B0C0000BFBD4680BC704780B500AF8A4B1B78D8
:100B1C00072B00F2168201A252F823F0490B0008B1
:100B2C009F0B0008690C0008650D00083F0E0008BB
:100B3C00B90E0008EB0E00081D0F00084FF47A7177
:100B4C000020FFF7E5FE7D4B1B6819460120FFF7DF
:100B5C00DFFE7B4B1B687B4A82FB03129211DB1777
:100B6C00D31A794A1360754B1B68764A82FB0312C1
:100B7C009211DB17D31A754A1360734B1B68734AB7
:100B8C00126811461846FFF7BBFB6B4B01221A701B
:100B9C00E6E100F087FA0020FFF70AFF0346002B7E
:100BAC0016D0694B1B68013B674A1360674B1B6887
:100BBC00013B664A1360644B1B68644A1268114619
:100BCC001846FFF79DFB4FF47A710020FFF7A0FE4B
:100BDC000020FFF713FD0346002B0DD001224FF42C
:100BEC0080515B4800F013FF4FF4FA710220FFF7BD
:100BFC008FFE514B05221A700120FFF7D9FE0346D8
:100C0C00002B00F0A081534B1B684E4A82FB031251
:100C1C009211DB17D31A4C4A13604E4B1B68494A8E
:100C2C0082FB03129211DB17D31A484A13604FF45C
:100C3C007A710020FFF76CFE464B1B6819460120A9
:100C4C00FFF766FE404B1B68404A12681146184677
:100C5C00FFF756FB384B02221A7074E100F046FA8B
:100C6C000020FFF7A5FE0346002B16D0364B1B6861
:100C7C00013B354A1360354B1B68013B334A13600B
:100C8C00314B1B68314A126811461846FFF738FB86
:100C9C004FF47A710020FFF73BFE0020FFF7AEFC0B
:100CAC000346002B0DD000224FF48051284800F051
:100CBC00AEFE4FF4FA710220FFF72AFE1E4B0522FE
:100CCC001A700120FFF774FE0346002B00F03D81E3
:100CDC001A4B1B681B4A82FB03129211DB17D31AA7
:100CEC00194A1360164B1B68164A82FB03129211A9
:100CFC00DB17D31A154A1360134B1B68134A12687F
:100D0C0011461846FFF7FCFA4FF47A710020FFF7F2
:100D1C00FFFD0A4B1B6819460120FFF7F9FD0A4B32
:100D2C001B680A4A126811461846FFF7E9FA024B8B
:100D3C0003221A7009E100BFE8000020180000200F
:100D4C0014000020D34D6210EC000020F0000020B5
:100D5C00000801401C00002000F0ECF90020FFF717
:100D6C0027FE0346002B16D07E4B1B68013B7D4AA9
:100D7C0013607D4B1B68013B7B4A1360794B1B68EE
:100D8C00794A126811461846FFF7BAFA4FF47A718D
:100D9C000020FFF7BDFD0120FFF70AFE0346002BE4
:100DAC0031D0724B1B68724A82FB03129211DB1713
:100DBC00D31A6C4A13606D4B1B686D4A82FB03128D
:100DCC009211DB17D31A684A1360664B1B68664A8C
:100DDC00126811461846FFF793FA4FF47A71002007
:100DEC00FFF796FD614B1B6819460120FFF790FD3C
:100DFC005C4B1B685C4A126811461846FFF780FA78
:100E0C005C4B04221A700020FFF7F8FB0346002B02
:100E1C0000F09D8000224FF48051574800F0F7FD00
:100E2C004FF4FA710220FFF773FD524B05221A7032
:100E3C008DE000F0A3F90020FFF7BAFD0346002B6C
:100E4C0016D0484B1B68013B464A1360464B1B6847
:100E5C00013B454A1360434B1B68434A12681146D9
:100E6C001846FFF74DFA4FF47A710020FFF750FD4A
:100E7C000120FFF79DFD0346002B02D03D4B0022C5
:100E8C001A700020FFF7BAFB0346002B61D0012239
:100E9C004FF48051384800F0BAFD4FF4FA7102203B
:100EAC00FFF736FD334B05221A7052E000F08AF939
:100EBC0000F064F80020FFF7A1FB0346002B02D0E2
:100ECC002C4B06221A700220FFF798FB0346002BCE
:100EDC0041D000F001FA274B00221A703BE000F0E1
:100EEC009FF900F04BF80020FFF788FB0346002B1E
:100EFC0002D0204B07221A700220FFF77FFB03461B
:100F0C00002B2AD000F034FA1A4B00221A7024E07D
:100F1C0000F0B4F900F032F80020FFF76FFB034645
:100F2C00002B02D0134B05221A700220FFF766FB30
:100F3C000346002B13D000F0F5F90E4B00221A706B
:100F4C000DE000BF0CE000BF0AE000BF08E000BFEE
:100F5C0006E000BF04E000BF02E000BF00E000BFFD
:100F6C0000BF80BDEC000020F00000201C00002021
:100F7C00D34D6210E80000200008014080B582B01B
:100F8C0000AF00237B601B4B1B78072B1AD0072B61
:100F9C0022DC052B02D0062B0AD01DE0164B1B6859
:100FAC00164A82FB03129211DB17D31A7B6014E0F2
:100FBC00134B1B68114A82FB03129211DB17D31AD5
:100FCC007B600AE00F4B1B680C4A82FB03129211E8
:100FDC00DB17D31A7B6000E000BF7B68632B01DD5D
:100FEC0001237B6079687868FFF78AF900BF0837BE
:100FFC00BD4680BDE800002014000020D34D6210D7
:10100C001C0000201800002080B500AF204B1B787E
:10101C00072B28D0072B37DC052B02D0062B11D041
:10102C0032E01C4B1B6803F57A731A4A1360194B98
:10103C001B68194A934202DD164B174A1A60FFF7D8
:10104C009DFF22E0154B1B6803F57A73134A13605E
:10105C00124B1B68104A934202DD104B0E4A1A6069
:10106C00FFF78CFF11E00E4B1B6803F57A730C4AEB
:10107C0013600B4B1B68084A934202DD084B064A6F
:10108C001A60FFF77BFF00E000BF00BF80BD00BF10
:10109C00E800002014000020B88201001C00002091
:1010AC001800002080B500AF002201210E4800F08E
:1010BC00AEFC012202210C4800F0A9FC0122042103
:1010CC00094800F0A4FC01220821074800F09FFC0D
:1010DC0001221021044800F09AFC00222021024831
:1010EC0000F095FC00BF80BD000C014080B500AF46
:1010FC00002201210E4800F08AFC012202210C483A
:10110C0000F085FC01220421094800F080FC01223A
:10111C000821074800F07BFC00221021044800F055
:10112C0076FC01222021024800F071FC00BF80BD3A
:10113C00000C014080B500AF012201210E4800F0E7
:10114C0066FC012202210C4800F061FC0022042103
:10115C00094800F05CFC00220821074800F057FC0D
:10116C0001221021044800F052FC012220210248E7
:10117C0000F04DFC00BF80BD000C014080B500AFFD
:10118C00012201210E4800F042FC002202210C48F1
:10119C0000F03DFC01220421094800F038FC00223B
:1011AC000821074800F033FC01221021044800F00C
:1011BC002EFC01222021024800F029FC00BF80BD3A
:1011CC00000C014080B500AF01220221134800F051
:1011DC001EFC01220421114800F019FC01221021EF
:1011EC000E4800F014FC012220210C4800F00FFCEA
:1011FC000220FFF7DDFB0346002B0CD00121074832
:10120C0000F01DFC0821054800F019FC4FF4FA71A0
:10121C000220FFF77DFB00BF80BD00BF000C01402A
:10122C0080B500AF01220121134800F0F0FB012230
:10123C000421114800F0EBFB012208210E4800F0BC
:10124C00E6FB012220210C4800F0E1FB0220FFF715
:10125C00AFFB0346002B0CD00221074800F0EFFB3C
:10126C001021054800F0EBFB4FF4FA710220FFF758
:10127C004FFB00BF80BD00BF000C014080B500AF2C
:10128C0001220121134800F0C2FB01220221114866
:10129C0000F0BDFB012208210E4800F0B8FB012232
:1012AC0010210C4800F0B3FB0220FFF781FB034632
:1012BC00002B0CD00421074800F0C1FB202105486D
:1012CC0000F0BDFB4FF4FA710220FFF721FB00BFC9
:1012DC0080BD00BF000C014080B400AF0E4B1A68FB
:1012EC000E4B1B689A4207DA0C4B1A680C4B1B68A6
:1012FC00D31A094A13600BE0084B41F658321A60B6
:10130C00074B4FF4FA621A60034B41F288321A60B1
:10131C0000BFBD4680BC70471800002014000020A0
:10132C001C00002080B400AF0E4B1A680E4B1B68DB
:10133C009A4207DA0C4B1A680C4B1B68D31A094AF1
:10134C0013600BE0084B41F658321A60074B4FF410
:10135C00FA621A60034B41F288321A6000BFBD4634
:10136C0080BC704718000020140000201C000020D6
:10137C0080B400AF0E4B1A680E4B1B689A4207DA0A
:10138C000D4B1A680B4B1B68D31A094A13600BE000
:10139C00094B41F658321A60054B4FF4FA621A6049
:1013AC00044B41F288321A6000BFBD4680BC7047C6
:1013BC001C0000201800002014000020FFF79EFBEA
:1013CC000B480C490C4A002302E0D458C450043397
:1013DC00C4188C42F9D3094A094C002301E013606C
:1013EC000432A242FBD301F005FBFFF759F9704719
:1013FC0000000020280000208C2A00082800002073
:10140C00F8000020FEE7000080B500AF084B1B6819
:10141C00074A43F010031360032000F023F90F2058
:10142C0000F008F8FFF7DEFA0023184680BD00BF75
:10143C000020024080B582B000AF7860124B1A6871
:10144C00124B1B7819464FF47A73B3FBF1F3B2FBD2
:10145C00F3F3184600F03BF90346002B01D00123AF
:10146C000EE07B680F2B0AD8002279684FF0FF3012
:10147C0000F003F9064A7B681360002300E00123A7
:10148C0018460837BD4680BD1000002024000020FF
:10149C002000002080B400AF054B1B781A46054B8A
:1014AC001B681344034A136000BFBD4680BC7047E1
:1014BC0024000020F400002080B400AF024B1B6815
:1014CC001846BD4680BC7047F400002080B485B03F
:1014DC0000AF78607B6803F00703FB600C4BDB68A4
:1014EC00BB60BA684FF6FF031340BB60FB681A027F
:1014FC00BB68134343F0BF6343F40033BB60044A3F
:10150C00BB68D36000BF1437BD4680BC704700BFBA
:10151C0000ED00E080B400AF044BDB681B0A03F065
:10152C0007031846BD4680BC704700BF00ED00E0C5
:10153C0080B483B000AF0346FB7197F90730002BE2
:10154C000BDBFB7903F01F02064997F907305B09A7
:10155C00012000FA02F241F8232000BF0C37BD46EF
:10156C0080BC704700E100E080B483B000AF03465C
:10157C003960FB7197F90730002B0ADB3B68DAB254
:10158C000C4997F907301201D2B20B4483F80023AF
:10159C000AE03B68DAB20849FB7903F00F03043B1D
:1015AC001201D2B20B441A7600BF0C37BD4680BC78
:1015BC00704700BF00E100E000ED00E080B489B0AE
:1015CC0000AFF860B9607A60FB6803F00703FB6159
:1015DC00FB69C3F10703042B28BF0423BB61FB6920
:1015EC000433062B02D9FB69033B00E000237B612B
:1015FC004FF0FF32BB6902FA03F3DA43BB681A40BF
:10160C007B699A404FF0FF317B6901FA03F3D943B0
:10161C007B680B40134318462437BD4680BC70478B
:10162C0080B582B000AF78607B68013BB3F1807FFE
:10163C0001D301230FE00A4A7B68013B53600F2161
:10164C004FF0FF30FFF790FF054B00229A60044BE0
:10165C0007221A60002318460837BD4680BD00BF1C
:10166C0010E000E080B582B000AF78607868FFF7DA
:10167C002DFF00BF0837BD4680BD80B586B000AFDA
:10168C000346B9607A60FB7300237B61FFF742FF6E
:10169C0078617A68B9687869FFF790FF024697F924
:1016AC000F3011461846FFF75FFF00BF1837BD46D5
:1016BC0080BD80B582B000AF0346FB7197F907304F
:1016CC001846FFF735FF00BF0837BD4680BD80B513
:1016DC0082B000AF78607868FFF7A2FF0346184627
:1016EC000837BD4680BD000080B48BB000AF786079
:1016FC00396000237B6200233B6261E101227B6A3B
:10170C0002FA03F3FB613B681B68FA691340BB6187
:10171C00BA69FB699A4240F050813B685B68974A12
:10172C0093425ED0954A934275D8954A934258D0CD
:10173C00934A93426FD8934A934252D0914A934220
:10174C0069D8914A93424CD08F4A934263D88F4ABE
:10175C00934246D08D4A93425DD8122B2AD8122B35
:10176C0059D801A252F823F0EF170008C917000846
:10177C00DB1700081D1800082318000823180008A0
:10178C002318000823180008231800082318000841
:10179C002318000823180008231800082318000831
:1017AC00231800082318000823180008D117000874
:1017BC00E5170008764A934213D02CE03B68DB68AF
:1017CC003B6229E03B68DB6804333B6224E03B6806
:1017DC00DB6808333B621FE03B68DB680C333B6221
:1017EC001AE03B689B68002B02D104233B6213E098
:1017FC003B689B68012B05D108233B627B68FA6927
:10180C001A6109E008233B627B68FA695A6103E0BC
:10181C0000233B6200E000BFBB69FF2B01D87B6853
:10182C0001E07B6804337B61BB69FF2B02D87B6AC8
:10183C009B0002E07B6A083B9B003B617B691A685A
:10184C000F213B6901FA03F3DB431A40396A3B6908
:10185C0001FA03F31A437B691A603B685B6803F077
:10186C008053002B00F0A9804A4B9B69494A43F0F6
:10187C0001039361474B9B6903F00103BB60BB6899
:10188C00454A7B6A9B08023352F82330FB607B6A23
:10189C0003F003039B000F2202FA03F3DB43FA6805
:1018AC001340FB607B683D4A93420DD07B683C4AF9
:1018BC00934207D07B683B4A934201D1022304E058
:1018CC00032302E0012300E000237A6A02F0030202
:1018DC0092009340FA681343FB602F497B6A9B0884
:1018EC000233FA6841F823203B685B6803F48013E9
:1018FC00002B06D02C4B9A682B49BB6913438B6089
:10190C0006E0294B9A68BB69DB43274913408B607F
:10191C003B685B6803F40013002B06D0224BDA689B
:10192C002149BB691343CB6006E01F4BDA68BB69E6
:10193C00DB431D491340CB603B685B6803F4003309
:10194C00002B06D0184B5A681749BB6913434B60E0
:10195C0006E0154B5A68BB69DB43134913404B60D7
:10196C003B685B6803F48033002B1FD00E4B1A6866
:10197C000D49BB6913430B601FE000BF0000321020
:10198C000000311000002210000021100000121085
:10199C00000011100010024000000140000801403E
:1019AC00000C014000100140000401400B4B1A6870
:1019BC00BB69DB43094913400B607B6A01337B62D3
:1019CC003B681A687B6A22FA03F3002B7FF496AE0D
:1019DC0000BF00BF2C37BD4680BC704700040140DF
:1019EC0080B485B000AF78600B467B807B689A68CA
:1019FC007B881340002B02D00123FB7301E00023F2
:101A0C00FB73FB7B18461437BD4680BC704780B413
:101A1C0083B000AF78600B467B8013467B707B787D
:101A2C00002B03D07A887B681A6103E07B881A0448
:101A3C007B681A6100BF0C37BD4680BC704780B410
:101A4C0085B000AF78600B467B807B68DB68FB6001
:101A5C007A88FB6813401A04FB68D9437B880B40D7
:101A6C001A437B681A6100BF1437BD4680BC7047AF
:101A7C0080B586B000AF78607B68002B01D1012364
:101A8C0072E27B681B6803F00103002B00F0878077
:101A9C00924B5B6803F00C03042B0CD08F4B5B68F0
:101AAC0003F00C03082B12D18C4B5B6803F48033CE
:101ABC00B3F5803F0BD1894B1B6803F40033002B2B
:101ACC006CD07B685B68002B68D101234CE27B688F
:101ADC005B68B3F5803F06D1804B1B687F4A43F4AB
:101AEC00803313602EE07B685B68002B0CD17B4B42
:101AFC001B687A4A23F480331360784B1B68774A4F
:101B0C0023F4802313601DE07B685B68B3F5A02F82
:101B1C000CD1724B1B68714A43F4802313606F4BDA
:101B2C001B686E4A43F4803313600BE06B4B1B68ED
:101B3C006A4A23F480331360684B1B68674A23F4AA
:101B4C00802313607B685B68002B13D0FFF7B4FC19
:101B5C00386108E0FFF7B0FC02463B69D31A642BEE
:101B6C0001D9032300E25D4B1B6803F40033002B07
:101B7C00F0D014E0FFF7A0FC386108E0FFF79CFC04
:101B8C0002463B69D31A642B01D90323ECE1534B76
:101B9C001B6803F40033002BF0D100E000BF7B681E
:101BAC001B6803F00203002B63D04C4B5B6803F003
:101BBC000C03002B0BD0494B5B6803F00C03082B78
:101BCC001CD1464B5B6803F48033002B16D1434B7E
:101BDC001B6803F00203002B05D07B681B69012BEB
:101BEC0001D00123C0E13D4B1B6823F0F8027B6858
:101BFC005B69DB00394913430B603AE07B681B6976
:101C0C00002B20D0364B01221A60FFF755FC3861AF
:101C1C0008E0FFF751FC02463B69D31A022B01D9AD
:101C2C000323A1E12D4B1B6803F00203002BF0D022
:101C3C002A4B1B6823F0F8027B685B69DB002749A1
:101C4C0013430B6015E0264B00221A60FFF734FC9F
:101C5C00386108E0FFF730FC02463B69D31A022BCF
:101C6C0001D9032380E11D4B1B6803F00203002BF9
:101C7C00F0D17B681B6803F00803002B3AD07B681B
:101C8C009B69002B19D0174B01221A60FFF714FC2B
:101C9C00386108E0FFF710FC02463B69D31A022BAF
:101CAC0001D9032360E10D4B5B6A03F00203002BA7
:101CBC00F0D0012000F09CFA1CE00A4B00221A60C4
:101CCC00FFF7FAFB38610FE0FFF7F6FB02463B69C2
:101CDC00D31A022B08D9032346E100BF001002409F
:101CEC000000424280044242924B5B6A03F00203C2
:101CFC00002BE9D17B681B6803F00403002B00F078
:101D0C00A6800023FB758B4BDB6903F08053002B03
:101D1C000DD1884BDB69874A43F08053D361854BE7
:101D2C00DB6903F08053BB60BB680123FB75824BFE
:101D3C001B6803F48073002B18D17F4B1B687E4A01
:101D4C0043F480731360FFF7B7FB386108E0FFF7CB
:101D5C00B3FB02463B69D31A642B01D9032303E17D
:101D6C00754B1B6803F48073002BF0D07B68DB6829
:101D7C00012B06D16F4B1B6A6E4A43F001031362B1
:101D8C002DE07B68DB68002B0CD16A4B1B6A694A1F
:101D9C0023F001031362674B1B6A664A23F00403AA
:101DAC0013621CE07B68DB68052B0CD1614B1B6A52
:101DBC00604A43F0040313625E4B1B6A5D4A43F0B6
:101DCC00010313620BE05B4B1B6A5A4A23F00103BD
:101DDC001362584B1B6A574A23F0040313627B6847
:101DEC00DB68002B15D0FFF767FB38610AE0FFF7C3
:101DFC0063FB02463B69D31A41F28832934201D904
:101E0C000323B1E04B4B1B6A03F00203002BEED013
:101E1C0014E0FFF751FB38610AE0FFF74DFB024677
:101E2C003B69D31A41F28832934201D903239BE0D8
:101E3C00404B1B6A03F00203002BEED1FB7D012B00
:101E4C0005D13C4BDB693B4A23F08053D3617B6863
:101E5C00DB69002B00F08780364B5B6803F00C03CA
:101E6C00082B61D07B68DB69022B46D1334B0022F7
:101E7C001A60FFF721FB386108E0FFF71DFB0246F3
:101E8C003B69D31A022B01D903236DE0294B1B6844
:101E9C0003F00073002BF0D17B681B6AB3F5803F15
:101EAC0008D1244B5B6823F400327B689B68214982
:101EBC0013434B601F4B5B6823F474127B68196AE5
:101ECC007B685B6A0B431B4913434B601B4B012222
:101EDC001A60FFF7F1FA386108E0FFF7EDFA0246F5
:101EEC003B69D31A022B01D903233DE0114B1B682C
:101EFC0003F00073002BF0D035E0104B00221A6079
:101F0C00FFF7DAFA386108E0FFF7D6FA02463B69C8
:101F1C00D31A022B01D9032326E0064B1B6803F0CE
:101F2C000073002BF0D11EE07B68DB69012B07D11D
:101F3C00012319E000100240007000406000424292
:101F4C000B4B5B68FB60FB6803F480327B681B6A9D
:101F5C009A4206D1FB6803F470127B685B6A9A4262
:101F6C0001D0012300E0002318461837BD4680BD80
:101F7C000010024080B584B000AF786039607B6897
:101F8C00002B01D10123D0E06A4B1B6803F007033F
:101F9C003A689A4210D9674B1B6823F007026549CF
:101FAC003B6813430B60634B1B6803F007033A68F1
:101FBC009A4201D00123B8E07B681B6803F002034E
:101FCC00002B20D07B681B6803F00403002B05D08A
:101FDC00594B5B68584A43F4E06353607B681B6859
:101FEC0003F00803002B05D0534B5B68524A43F4B3
:101FFC0060535360504B5B6823F0F0027B689B6826
:10200C004D4913434B607B681B6803F00103002BA5
:10201C0040D07B685B68012B07D1474B1B6803F4EE
:10202C000033002B15D101237FE07B685B68022B0A
:10203C0007D1414B1B6803F00073002B09D101231E
:10204C0073E03D4B1B6803F00203002B01D101230D
:10205C006BE0394B5B6823F003027B685B683649A5
:10206C0013434B60FFF728FAF8600AE0FFF724FAF5
:10207C000246FB68D31A41F28832934201D90323FA
:10208C0053E02D4B5B6803F00C027B685B689B0094
:10209C009A42EBD1274B1B6803F007033A689A422C
:1020AC0010D2244B1B6823F0070222493B681343D0
:1020BC000B60204B1B6803F007033A689A4201D06F
:1020CC00012332E07B681B6803F00403002B08D06B
:1020DC00194B5B6823F4E0627B68DB681649134399
:1020EC004B607B681B6803F00803002B09D0124B74
:1020FC005B6823F460527B681B69DB000E49134359
:10210C004B6000F021F802460B4B5B681B0903F097
:10211C000F030A49CB5C22FA03F3094A1360094BFB
:10212C001B681846FFF786F9002318461037BD4682
:10213C0080BD00BF0020024000100240602A000851
:10214C00100000202000002080B487B000AF0023D6
:10215C00FB600023BB6000237B6100237B600023BA
:10216C003B611E4B5B68FB60FB6803F00C03042BAC
:10217C0002D0082B03D027E0194B3B6127E0FB680A
:10218C009B0C03F00F03174AD35C7B60FB6803F4D2
:10219C008033002B10D0114B5B685B0C03F00103F8
:1021AC00114AD35CBB607B680D4A03FB02F2BB682F
:1021BC00B2FBF3F37B6104E07B680C4A02FB03F394
:1021CC007B617B693B6102E0054B3B6100BF3B6976
:1021DC0018461C37BD4680BC704700BF001002403B
:1021EC0000127A00702A0008802A000800093D00BD
:1021FC0080B485B000AF78600A4B1B680A4AA2FB1A
:10220C0003235B0A7A6802FB03F3FB6000BFFB68E5
:10221C005A1EFA60002BF9D100BF00BF1437BD461F
:10222C0080BC704710000020D34D621080B582B086
:10223C0000AF78607B68002B01D1012341E07B6803
:10224C0093F83D30DBB2002B06D17B68002283F87B
:10225C003C207868FEF7F8FB7B68022283F83D206F
:10226C007B681A687B6804331946104600F056FAEE
:10227C007B68012283F846207B68012283F83E208C
:10228C007B68012283F83F207B68012283F8402081
:10229C007B68012283F841207B68012283F842206D
:1022AC007B68012283F843207B68012283F8442059
:1022BC007B68012283F845207B68012283F83D204E
:1022CC00002318460837BD4680BD000080B485B099
:1022DC0000AF78607B6893F83D30DBB2012B01D006
:1022EC00012335E07B68022283F83D207B681B6864
:1022FC00DA687B681B6842F00102DA607B681B6855
:10230C00164A934209D07B681B68B3F1804F04D006
:10231C007B681B68124A934211D17B681B689B68CF
:10232C0003F00703FB60FB68062B10D07B681B686F
:10233C001A687B681B6842F001021A6007E07B6830
:10234C001B681A687B681B6842F001021A60002344
:10235C0018461437BD4680BC704700BF002C0140A6
:10236C000004004080B584B000AF78607B681B68C7
:10237C00DB68FB607B681B681B69BB60BB6803F098
:10238C000203002B20D0FB6803F00203002B1BD0B0
:10239C007B681B686FF002021A617B6801221A7756
:1023AC007B681B689B6903F00303002B03D07868E0
:1023BC0000F098F905E0786800F08BF9786800F087
:1023CC009AF97B6800221A77BB6803F00403002B90
:1023DC0020D0FB6803F00403002B1BD07B681B6828
:1023EC006FF004021A617B6802221A777B681B6803
:1023FC009B6903F44073002B03D0786800F072F9EA
:10240C0005E0786800F065F9786800F074F97B688D
:10241C0000221A77BB6803F00803002B20D0FB685E
:10242C0003F00803002B1BD07B681B686FF00802BD
:10243C001A617B6804221A777B681B68DB6903F0DE
:10244C000303002B03D0786800F04CF905E07868A2
:10245C0000F03FF9786800F04EF97B6800221A779B
:10246C00BB6803F01003002B20D0FB6803F01003B3
:10247C00002B1BD07B681B686FF010021A617B6805
:10248C0008221A777B681B68DB6903F44073002B06
:10249C0003D0786800F026F905E0786800F019F9A7
:1024AC00786800F028F97B6800221A77BB6803F083
:1024BC000103002B0CD0FB6803F00103002B07D0A9
:1024CC007B681B686FF001021A617868FEF7EAF905
:1024DC00BB6803F08003002B0CD0FB6803F0800377
:1024EC00002B07D07B681B686FF080021A6178683C
:1024FC0000F06FFABB6803F04003002B0CD0FB68B4
:10250C0003F04003002B07D07B681B686FF0400280
:10251C001A61786800F0F8F8BB6803F02003002B10
:10252C000CD0FB6803F02003002B07D07B681B68E2
:10253C006FF020021A61786800F042FA00BF103781
:10254C00BD4680BD80B584B000AF78603960002393
:10255C00FB737B6893F83C30012B01D10223B4E070
:10256C007B68012283F83C207B68022283F83D20A3
:10257C007B681B689B68BB60BB6823F07703BB6000
:10258C00BB6823F47F43BB607B681B68BA689A60A6
:10259C003B681B68B3F5005F3ED0B3F5005F00F2FB
:1025AC008780B3F5805F00F08680B3F5805F7FD8BD
:1025BC00702B1AD0702B7BD8602B50D0602B77D817
:1025CC00502B3CD0502B73D8402B58D0402B6FD86D
:1025DC00302B64D0302B6BD8202B60D0202B67D8BD
:1025EC00002B5CD0102B5AD062E07B6818683B68DB
:1025FC0099683B685A683B68DB6800F06AF97B684D
:10260C001B689B68BB60BB6843F07703BB607B684F
:10261C001B68BA689A604FE07B6818683B689968D9
:10262C003B685A683B68DB6800F053F97B681B68B1
:10263C009A687B681B6842F480429A603CE07B6835
:10264C0018683B6859683B68DB681A4600F0CAF8A2
:10265C007B681B685021184600F021F92CE07B6840
:10266C0018683B6859683B68DB681A4600F0E8F864
:10267C007B681B686021184600F011F91CE07B6830
:10268C0018683B6859683B68DB681A4600F0AAF882
:10269C007B681B684021184600F001F90CE07B6850
:1026AC001A683B681B681946104600F0F8F803E0FE
:1026BC000123FB7300E000BF7B68012283F83D20FF
:1026CC007B68002283F83C20FB7B18461037BD4604
:1026DC0080BD80B483B000AF786000BF0C37BD46BE
:1026EC0080BC704780B483B000AF786000BF0C37FB
:1026FC00BD4680BC704780B483B000AF786000BF2B
:10270C000C37BD4680BC704780B483B000AF786096
:10271C0000BF0C37BD4680BC7047000080B485B04C
:10272C0000AF786039607B681B68FB607B682B4A64
:10273C00934207D07B68B3F1804F03D07B68284A63
:10274C00934208D1FB6823F07003FB603B685B6825
:10275C00FA681343FB607B68204A934207D07B687E
:10276C00B3F1804F03D07B681D4A934208D1FB68BC
:10277C0023F44073FB603B68DB68FA681343FB602F
:10278C00FB6823F080023B685B691343FB607B684A
:10279C00FA681A603B689A687B68DA623B681A6868
:1027AC007B689A627B680D4A934203D13B681A6935
:1027BC007B681A637B6801225A617B681B6903F092
:1027CC000103002B05D07B681B6923F001027B6899
:1027DC001A6100BF1437BD4680BC7047002C014005
:1027EC000004004080B487B000AFF860B9607A6034
:1027FC00FB681B6A7B61FB681B6A23F00102FB68A8
:10280C001A62FB689B693B613B6923F0F0033B61F7
:10281C007B681B013A6913433B617B6923F00A0314
:10282C007B617A69BB6813437B61FB683A699A6187
:10283C00FB687A691A6200BF1C37BD4680BC7047C2
:10284C0080B487B000AFF860B9607A60FB681B6A2F
:10285C007B61FB681B6A23F01002FB681A62FB6841
:10286C009B693B613B6923F470433B617B681B03B1
:10287C003A6913433B617B6923F0A0037B61BB681E
:10288C001B017A6913437B61FB683A699A61FB68A7
:10289C007A691A6200BF1C37BD4680BC704780B491
:1028AC0085B000AF786039607B689B68FB60FB6823
:1028BC0023F07003FB603A68FB68134343F0070393
:1028CC00FB607B68FA689A6000BF1437BD4680BC19
:1028DC00704780B487B000AFF860B9607A603B6035
:1028EC00FB689B687B617B6923F47F437B613B685E
:1028FC001A027B681A43BB6813437A6913437B61E2
:10290C00FB687A699A6000BF1C37BD4680BC704773
:10291C0080B485B000AF786039607B6893F83C3048
:10292C00012B01D1022341E07B68012283F83C207A
:10293C007B68022283F83D207B681B685B68FB6028
:10294C007B681B689B68BB60FB6823F07003FB60B3
:10295C003B681B68FA681343FB607B681B68FA686A
:10296C005A607B681B68144A934209D07B681B68C9
:10297C00B3F1804F04D07B681B68104A93420CD192
:10298C00BB6823F08003BB603B685B68BA68134389
:10299C00BB607B681B68BA689A607B68012283F80D
:1029AC003D207B68002283F83C2000231846143716
:1029BC00BD4680BC704700BF002C014000040040A5
:1029CC0080B483B000AF786000BF0C37BD4680BCCC
:1029DC00704780B483B000AF786000BF0C37BD4641
:1029EC0080BC704703460244934200D1704703F801
:1029FC00011BF9E770B500260C4D0D4C641BA4109F
:102A0C00A64209D100F01AF800260A4D0A4C641BA4
:102A1C00A410A64205D170BD55F8043B9847013669
:102A2C00EEE755F8043B98470136F2E7842A000894
:102A3C00842A0008842A0008882A0008F8B500BFF8
:102A4C00F8BC08BC9E467047F8B500BFF8BC08BC83
:042A5C009E467047DB
:102A6000000000000000000001020304060708093E
:102A700002030405060708090A0B0C0D0E0F1010BF
:042A8000010200004F
:042A84003101000814
:042A88000D01000834
:102A8C004079243019120278001000000F00000069
:102A9C0000127A00581B000088130000D0070000B9
:082AAC00100000000100000011
:04000005080013C913
:00000001FF
